:100000000C9463000C948B000C948B000C94AF0345
:100010000C94AF030C94AF030C948B000C948B00E6
:100020000C948B000C948B000C948B000C948B0024
:100030000C948B000C948B000C948B000C948B0014
:100040000C940D030C948B000C947D030C945703BB
:100050000C948B000C948B000C948B000C948B00F4
:100060000C948B000C948B000000000024002700EF
:100070002A0000000008000201000003040700003D
:1000800000000000000000000000250028002B00F8
:1000900000000000230026002900040404040404D6
:1000A0000404020202020202030303030303010227
:1000B00004081020408001020408102001020408F6
:1000C00010202904C70611241FBECFEFD8E0DEBFE1
:1000D000CDBF11E0A0E0B1E0E2ECF0E102C005909C
:1000E0000D92A632B107D9F722E0A6E2B1E001C035
:1000F0001D92AA33B207E1F710E0C2E6D0E004C0D7
:100100002197FE010E94F906C136D107C9F70E9466
:10011000E8040C9454080C940000CF92DF92EF9204
:10012000FF920F931F93CF93DF936C017A018B01A2
:10013000C0E0D0E0CE15DF0589F0D8016D918D01CA
:10014000D601ED91FC910190F081E02DC601099559
:10015000892B11F47E0102C02196ECCFC701DF91FB
:10016000CF911F910F91FF90EF90DF90CF90089566
:10017000FC01918D828D981761F0828DDF01A80FAF
:10018000B11D5D968C91928D9F5F9F73928F90E0D1
:1001900008958FEF9FEF0895FC01918D828D981740
:1001A00031F0828DE80FF11D858D90E008958FEF7D
:1001B0009FEF0895FC01918D228D892F90E0805C46
:1001C0009F4F821B91098F739927089586E791E0CD
:1001D0000E94DA0021E0892B09F420E0822F0895A3
:1001E000FC01848DDF01A80FB11DA35ABF4F2C91D4
:1001F000848D90E001968F739927848FA689B789A3
:100200002C93A089B1898C9180648C93938D848D7B
:10021000981306C00288F389E02D80818F7D80834A
:100220000895EF92FF920F931F93CF93DF93EC010A
:1002300081E0888F9B8D8C8D981305C0E889F989A2
:10024000808185FD24C0F62E0B8D10E00F5F1F4FBF
:100250000F731127E02E8C8DE8120CC00FB607FC2F
:10026000FACFE889F989808185FFF5CFCE010E9418
:10027000F000F1CF8B8DFE01E80FF11DE35AFF4F27
:10028000F0820B8FEA89FB898081806207C0EE894A
:10029000FF896083E889F98980818064808381E0B7
:1002A00090E0DF91CF911F910F91FF90EF90089513
:1002B000CF93DF93EC01888D8823C9F0EA89FB890D
:1002C000808185FD05C0A889B9898C9186FD0FC004
:1002D0000FB607FCF5CF808185FFF2CFA889B989D9
:1002E0008C9185FFEDCFCE010E94F000E7CFDF912A
:1002F000CF91089580E090E0892B29F00E94E600DC
:1003000081110C9400000895833081F028F481302D
:1003100099F08230A1F008958730A9F08830B9F0C3
:100320008430D1F4809180008F7D03C08091800063
:100330008F7780938000089584B58F7702C084B54D
:100340008F7D84BD08958091B0008F7703C0809128
:10035000B0008F7D8093B0000895CF93DF93EEE7D8
:10036000F0E08491EAEBF0E0D491E6EAF0E0C491A9
:10037000CC2391F081110E948401EC2FF0E0EE0F6C
:10038000FF1FE057FF4FA591B491EC91ED2381E061
:1003900090E021F480E002C080E090E0DF91CF9116
:1003A00008951F93CF93DF93282F30E0F901EE5883
:1003B000FF4F8491F901E255FF4FD491F901E656C0
:1003C000FF4FC491CC23C9F0162F81110E948401E4
:1003D000EC2FF0E0EE0FFF1FEA57FF4FA591B4910D
:1003E0008FB7F894111105C09C91ED2FE095E9238A
:1003F00002C0EC91ED2BEC938FBFDF91CF911F9159
:100400000895CF93C82F682F617088E00E94D101B2
:100410006C2F627089E00E94D1010E94AD01892B8E
:10042000E1F3CF910895CF93DF9390E0FC01E25583
:10043000FF4F2491FC01E656FF4F8491882361F120
:1004400090E0880F991FFC01E859FF4FC591D491A6
:10045000FC01EA57FF4FA591B491611109C09FB704
:10046000F8948881209582238883EC912E230BC0F9
:10047000623061F49FB7F8943881822F809583238E
:100480008883EC912E2B2C939FBF06C08FB7F894D6
:10049000E8812E2B28838FBFDF91CF910895209183
:1004A0006801309169012817390771F4909166014C
:1004B00080916701981741F0E0916601F0E0EA5DF4
:1004C000FE4F808190E008958FEF9FEF089508958B
:1004D0001F93CF93DF93DC015C962D913C915D9748
:1004E0002115310539F481E090E013969C938E93A9
:1004F00012973DC05196ED91FC91529750969C9168
:100500005097892F80951FB75E964C915E9741FB5F
:10051000772770F941FD6095F8944081772311F0B9
:10052000492B01C048234083E9012197F1F748E0B6
:10053000508160FF02C0592B01C058235083E9014C
:100540002197F1F76695415099F7772321F0908133
:100550008923808303C08081982B90831FBF5C9682
:100560008D919C915D970197F1F721E030E0C901F1
:10057000DF91CF911F910895209168013091690119
:100580002817390771F4809167012091660190E086
:10059000805C9F4F821B910960E470E00E94D1064D
:1005A000089580E090E008952091680130916901FC
:1005B00028173907B9F4909166018091670198175F
:1005C00089F0E0916601F0E0EA5DFE4F80812091C4
:1005D000660130E02F5F3F4F2F7333272093660172
:1005E00090E008958FEF9FEF0895E0916801F091FA
:1005F0006901E817F90769F4A389B4899C91858991
:10060000809589238C93109269011092680181E092
:10061000089580E008950E9448081F920F920FB637
:100620000F9211242F933F938F939F93AF93BF9378
:100630008091720190917301A0917401B091750144
:100640003091710123E0230F2D3720F40196A11D75
:10065000B11D05C026E8230F0296A11DB11D2093F0
:1006600071018093720190937301A0937401B09310
:10067000750180916D0190916E01A0916F01B09113
:1006800070010196A11DB11D80936D0190936E01C3
:10069000A0936F01B0937001BF91AF919F918F9123
:1006A0003F912F910F900FBE0F901F9018951F92A2
:1006B0000F920FB60F9211242F933F934F935F9396
:1006C0006F937F938F939F93AF93BF93EF93FF931A
:1006D00086E791E00E94F000FF91EF91BF91AF910A
:1006E0009F918F917F916F915F914F913F912F914A
:1006F0000F900FBE0F901F9018951F920F920FB67C
:100700000F9211242F938F939F93EF93FF93E09178
:100710008601F09187018081E0918C01F0918D013B
:1007200082FD12C0908180918F018F5F8F73209125
:100730009001821751F0E0918F01F0E0EA58FE4FEE
:10074000958F80938F0101C08081FF91EF919F91E0
:100750008F912F910F900FBE0F901F9018951F92A1
:100760000F920FB60F9211242F933F934F935F93E5
:100770006F937F938F939F93AF93BF93EF93FF9369
:10078000E0916801F0916901309709F451C0968DAC
:10079000A685B785858591FF04C09C91892329F49E
:1007A00047C09C91892309F043C0A389B4899C91D7
:1007B0008589809589238C93868997890197F1F79C
:1007C000608D718DA685B785558538E020E0CB0119
:1007D0000197F1F7822F90E095958795282F4C91FE
:1007E000452309F02068315091F7868D81FD2095D1
:1007F0008091670190E001968F739927309166018F
:10080000381749F0A0916701B0E0AA5DBE4F2C9364
:100810008093670103C0868D8160868F828D938D62
:100820000197F1F7A389B4899C918589892B8C93D1
:10083000FF91EF91BF91AF919F918F917F916F91B8
:100840005F914F913F912F910F900FBE0F901F908E
:100850001895109279011092780188EE93E0A0E04B
:10086000B0E080937A0190937B01A0937C01B093D8
:100870007D018AE091E0909377018093760185EC89
:1008800090E0909383018093820184EC90E09093B8
:1008900085018093840180EC90E0909387018093A0
:1008A000860181EC90E0909389018093880182EC2D
:1008B00090E090938B0180938A0186EC90E0909376
:1008C0008D0180938C0110928F01109290011092F3
:1008D00091011092920161E088E00E94130261E0B0
:1008E00089E00E94130260E08CE00E9413020E94E3
:1008F000AD01892BE1F310921A021092190288EED1
:1009000093E0A0E0B0E080931B0290931C02A093C0
:100910001D02B0931E028AE191E090931802809329
:10092000170210922E0210922D0210923002109295
:100930002F02109232021092310210923402109261
:100940003302609135026E7F6D7F6093350266954C
:10095000617081E068278AE00E94D10161E08AE04D
:100960000E941302E8EBF0E0E491E0932702E4EA4E
:10097000F0E0E491F0E0EE0FFF1FEA57FF4F8591A2
:100980009491909329028093280260E08BE00E946A
:1009900013028091350281FD04C061E08BE00E946A
:1009A000D1018BE080932302E9EBF0E0E491E09346
:1009B0002402E5EAF0E0E491F0E0EE0FFF1FE057DB
:1009C000FF4F85919491909326028093250208957C
:1009D000789484B5826084BD84B5816084BD85B51A
:1009E000826085BD85B5816085BD80916E00816026
:1009F00080936E00109281008091810082608093CC
:100A000081008091810081608093810080918000CD
:100A10008160809380008091B10084608093B100F8
:100A20008091B00081608093B00080917A008460F2
:100A300080937A0080917A00826080937A0080911E
:100A40007A00816080937A0080917A008068809338
:100A50007A001092C100E0918601F091870182E056
:100A60008083E0918201F09183011082E091840102
:100A7000F09185018FEC808310928E01E0918A01C4
:100A8000F0918B0186E08083E0918801F0918901EB
:100A9000808180618083E0918801F091890180816B
:100AA00088608083E0918801F0918901808180686D
:100AB0008083E0918801F091890180818F7D80831E
:100AC0006FEF86E791E00E941101109232021092BE
:100AD00031021092300210922F0210922E021092C8
:100AE0002D028DE991E0909334028093330290912E
:100AF0002302963108F057C02DEB30E030932E02E0
:100B000020932D022BE931E03093300220932F0205
:100B10002CE231E0309332022093310220916800C0
:100B2000983050F031E09E3008F430E081E001C0B0
:100B3000880F3A95EAF701C084E0822B8093680021
:100B4000983038F09E3040F0963148F020E030E0A8
:100B500008C02DE630E005C02BE630E002C02CE6F0
:100B600030E030932B0220932A02983030F481E059
:100B700001C0880F9A95EAF70EC0292F30E09E3009
:100B800018F42850310902C02E50310981E001C00B
:100B9000880F2A95EAF780932C0280913302909176
:100BA00034020197F1F78091310290913202892B42
:100BB00021F1809168019091690122E087319207CB
:100BC000E1F0009711F00E94F502809135028E7FCE
:100BD00080933502109267011092660187E192E0DE
:100BE0009093690180936801E0912A02F0912B02B1
:100BF000908180912C02892B808383E00E940102E6
:100C000060EC87E192E00E9468026BEB87E192E082
:100C10000E9468026BEB87E192E00E94680269E142
:100C200087E192E00E94680267E187E192E00E941A
:100C300068026FEF87E192E00E9468020E94AD01B6
:100C4000892BE1F387E192E00E94BC02892B51F0ED
:100C500087E192E00E94D402682F86E791E00E942B
:100C60001101F0CF82E00E94010287E192E00E9430
:100C7000BC02181619060CF087C087E192E00E94AA
:100C8000D40290911602191684F080931602809374
:100C9000150262E070E0082E000C990B0E94FF061E
:100CA0009093140280931302E0CFE0911502F0E0DC
:100CB000E91BF10997FDF39520911302309114027D
:100CC000E20FF31F808380911602815080931602F9
:100CD0008111CBCF6CEA86E791E00E9411018091EF
:100CE000130290911402A091150280936A019093CF
:100CF0006B01A0936C01C0E0D0E010916C01812FDA
:100D000090E0C817D9076CF4E0916A01F0916B018B
:100D1000EC0FFD1F608186E791E00E941101219692
:100D2000ECCF0E94AD01892BE1F380E00E9401022B
:100D300000916A01E0906B016AEA87E192E00E940B
:100D400068026AEA87E192E00E94680267E187E14F
:100D500092E00E946802612F87E192E00E9468029F
:100D6000F02EC02FDE2D8C2F8F19811730F4699152
:100D700087E192E00E946802F6CF0E94AD01892BC4
:100D8000E1F382E00E9401020E947A016ECF8AE1C3
:100D900091E0909318028093170287E192E00C94FF
:100DA000F50297FB072E16F4009407D077FD09D0C3
:100DB0000E94E50607FC05D03EF4909581959F4F73
:100DC0000895709561957F4F0895AA1BBB1B51E153
:100DD00007C0AA1FBB1FA617B70710F0A61BB70BAB
:100DE000881F991F5A95A9F780959095BC01CD0150
:100DF0000895EE0FFF1F0590F491E02D09940F93D5
:100E00001F93CF93DF93869F8001879F100D969F3E
:100E1000100D1124C8010E941B07EC01009729F056
:100E2000A80160E070E00E944D08CE01DF91CF91F3
:100E30001F910F910895CF93DF938230910510F4A5
:100E400082E090E0E0913802F091390220E030E059
:100E5000C0E0D0E0309711F1408151814817590727
:100E6000C0F04817590761F482819381209719F0E7
:100E70009B838A832BC0909339028093380226C0CB
:100E80002115310519F04217530718F49A01BE01D4
:100E9000DF01EF010280F381E02DDCCF2115310568
:100EA00009F1281B390B2430310590F412968D91ED
:100EB0009C9113976115710521F0FB019383828347
:100EC00004C09093390280933802FD01329644C0E9
:100ED000FD01E20FF31F81939193225031092D936D
:100EE0003C933AC02091360230913702232B41F4D3
:100EF0002091020130910301309337022093360292
:100F000020910001309101012115310541F42DB7E7
:100F10003EB74091040150910501241B350BE0912F
:100F20003602F0913702E217F307A0F42E1B3F0BB5
:100F30002817390778F0AC014E5F5F4F241735074B
:100F400048F04E0F5F1F5093370240933602819353
:100F5000919302C0E0E0F0E0CF01DF91CF910895DE
:100F60000F931F93CF93DF93009709F48CC0FC017C
:100F700032971382128200913802109139020115C2
:100F8000110581F420813181820F931F2091360257
:100F9000309137022817390779F5F0933702E0933B
:100FA000360271C0D80140E050E0AE17BF0750F4E0
:100FB00012962D913C911397AD012115310509F140
:100FC000D901F3CF9D01DA013383228360817181DE
:100FD000860F971F8217930769F4EC0128813981E6
:100FE000260F371F2E5F3F4F318320838A819B81DD
:100FF00093838283452B29F4F0933902E0933802DE
:1010000042C01396FC93EE931297ED0149915991CA
:101010009E01240F351FE217F30771F4808191813F
:10102000840F951F029611969C938E9382819381D3
:1010300013969C938E931297E0E0F0E0D8011296FD
:101040008D919C911397009719F0F8018C01F6CFC0
:101050008D919C9198012E5F3F4F820F931F20919D
:101060003602309137022817390769F4309729F48E
:10107000109239021092380202C013821282109329
:10108000370200933602DF91CF911F910F9108959F
:1010900081E090E0F8940C945408DC0101C06D9359
:1010A00041505040E0F7089510E0C2E6D0E004C09F
:1010B000FE010E94F9062196C336D107C9F7F894BC
:0210C000FFCF60
:1010C20000003A0280000000000011018D00DA00E9
:1010D200B800CC0058010000000068028D00BC027C
:0610E200D4024F02670278
:00000001FF
